:020000004D2A87
:06000600000000000800EC
:10000C000F3083120313FC004730FD00FD0B0C284E
:0A001C00FC0B0C2800000000080097
:0E002600213083120313FD00FD0B1728080084
:1000340083120313F801F9011030FC00710DF80D5F
:10004400F90D7408F8027508031C750FF9020318FA
:1000540032287408F80775080318750FF907031098
:0A006400F00DF10DFC0B2028080040
:10006E0083120317981B3E2803138813402803138B
:10007E0088170317181B4628031308134828031361
:10008E0008170317981A4E280313881250280313C3
:10009E0088160317181A5628031308125828031324
:1000AE000816831667185E288312071660288312B7
:1000BE00071207170320071303179819692803134C
:1000CE0088136B2803138817031718197128031345
:1000DE0008137328031308170317981879280313A6
:1000EE0088127B2803138816031718188128031308
:1000FE00081283280313081683166718892883129B
:10010E0007168B288312071207170320071383166F
:0C011E00671C932806209428132008007A
:0E012A008316031369088A0068088200080023
:100138008316031367106F0883120317980037207C
:0601480083166714080095
:10014E0083160313EF0105306F020318B9286F08E9
:10015E0083120317160784002030800083160313C2
:10016E00EF0AAA286F08831203171607840080016E
:10017E0083160313EF036F088312031716079700F6
:10018E000A30F400F5011408F0001508F1001A20E9
:10019E007808F0007908F1003030F00703171708DF
:1001AE008400700880000A30F400F5011408F00095
:1001BE001508F1001A2070080317940071089500B5
:1001CE0000307106031DED2800307006031DF02867
:0C01DE00F42883160313EF03C228080066
:1001EA000E3083120313FD00FD0BF92800000800EE
:1001FA00C330831203139F05C0309F0083166A0819
:10020A00F000F00D7010F00D7010700883129F044A
:10021A006C09F000700883169F059F1783121F143C
:10022A00F5209F149F1C1B29000017291F101E0868
:10023A00F100F00183161E08F0040030F1040800F2
:10024A003729803083160313EA004A29C030EA00AE
:10025A004A299430EA004A29D430EA004A298030EF
:10026A00EA004A29831603136A08013A0319262960
:10027A006A08023A03192B296A08033A03192E2934
:10028A006A08043A0319312934296B03F0006A0811
:10029A00F0077008EA0070088312031798003720E5
:1002AA0083166710ED016D086C07840000080319B6
:1002BA0066296D086C0784000008EF009C20ED0A8F
:0602CA005829671408002A
:1002D0008312031790019101831603136A08831296
:1002E00003179200831603136B08831203179300FE
:1002F0008030831603136B06F00080307002031DFC
:10030000832900306A0203189B29013083120317E6
:10031000900000309100831603136A08003C83129A
:1003200003179200831603136B08031C013E83120C
:100330000317930193028312031712089400130802
:100340009500831603136C08831203179600A720E9
:10035000063083160313ED000030EE006E08003CFB
:10036000031DB4296D08003C0318CF296D086C07E4
:10037000F20001306D02F0000030031C013E6E02FD
:10038000F10070086C0784000008F0007208840017
:10039000700880000130ED02031CEE03AE296C08EA
:1003A0008400203080008312031710081104031901
:1003B000F12983160313ED01EE016D086C0784002B
:1003C0000008203A031DE829ED0A0319EE0ADD2989
:1003D0000130ED02031CEE036D086C0784002D3024
:0403E0008000080091
:1003E40083160313071307120812881208138813BD
:1003F40083120713071288130813881208120620A1
:10040400062006208816081607170320071306205F
:1004140007170320071306200717032007130620D6
:1004240008120717032007130620071703200713D2
:100434008812881707170320071306208813081645
:1004440007170320071308120717032007130620B2
:10045400071703200713081607170320071306209E
:100464000812071703200713881708178816081699
:0E0474000717032007130620831667140800DD
:1004820095208A110A128000840AE80A0319E90AEF
:08049200F003031D412A0800DC
:10049A008625033083160317880089018312871380
:1004AA00881383160313081483120810831686010F
:1004BA00013083128600F22101308312031798005B
:1004CA0037200C3003179800372001308316EA00D2
:1004DA000130EB004230EC0025210230EA00013005
:1004EA00EB004530EC0025210330EA000130EB0037
:1004FA003A30EC0025210330EA000F30EB003E30A1
:10050A00EC0025210230EA000F30EB005B30EC00F2
:10051A00252183160130EA000130EB005D30EC0042
:10052A0025210230EA000130EB004E30EC00252193
:10053A000330EA000130EB005730EC00252103308C
:10054A00EA000F30EB003630EC0025210230EA00D9
:10055A000F30EB002430EC002521EA01FD20700861
:10056A008312A6007108A700A801A901260883160C
:10057A00EA00831227088316EB00C930EC006821D1
:10058A00033083160313EA000930EB00C930EC008C
:10059A0025210130EA00FD2070088312A0007108AD
:1005AA00A100A201A3012008F0002108F1002208FD
:1005BA00F2002308F300F30CF20CF10CF00CF31325
:1005CA00731BF317F31FF22A031CF22AF00A03190A
:1005DA00F10A0319F20A0319F30A7008A000710854
:1005EA00A1007208A2007308A30070088316EA002B
:1005FA007108EB00D830EC0068210230831603132F
:10060A00EA000930EB00D830EC0025218316EA0114
:10061A00FD207108003C031D142B7008283C0318A8
:10062A00652B013083120317980037200130831697
:10063A00EA000130EB003230EC00252184308312CD
:10064A0086008316EA01FD2070088312A60071084D
:10065A00A700A801A90126088316EA008312270821
:10066A008316EB00C930EC006821033083160313AC
:10067A00EA000130EB00C930EC0025210330EA0022
:10068A000730EB002A30EC0025210230EA00013065
:10069A00EB002E30EC0025210630FB001330FC0065
:1006AA00AD30FD00FD0B572BFC0B572BFB0B572BCB
:1006BA0000000000013083120317980037200B2B2B
:1006CA008316EA01FD2000307102031D6E2B0A30E9
:1006DA0070020318BF2B01308312031798003720CA
:1006EA0001308316EA000130EB00B630EC00252118
:1006FA008430831286008316EA01FD207008831273
:10070A00A6007108A700A801A90126088316EA0015
:10071A00831227088316EB00C930EC0068210330E6
:10072A0083160313EA000130EB00C930EC002521DF
:10073A000330EA000730EB00C130EC00252102301B
:10074A00EA000130EB00C530EC0025210630FB0041
:10075A001330FC00AD30FD00FD0BB12BFC0BB12BAF
:10076A00FB0BB12B00000000013083120317980025
:10077A003720652B01308316EA00FD207008F2004D
:10078A007108F300F30CF20CF31300307302031D2B
:10079A00D02B0F3072020318422C01308312031738
:1007AA009800372001308316EA000130EB00B93097
:1007BA00EC00252184308312860001308316EA007A
:1007CA00FD2070088312A0007108A100A201A301F4
:1007DA002008F0002108F1002208F2002308F300A3
:1007EA00F30CF20CF10CF00CF313731BF317F31F59
:1007FA00072C031C072CF00A0319F10A0319F20A41
:10080A000319F30A7008A0007108A1007208A20077
:10081A007308A30070088316EA007108EB00C93058
:10082A00EC006821033083160313EA000130EB0061
:10083A00C930EC0025210330EA000730EB00BF3055
:10084A00EC0025210230EA000130EB00AD30EC006B
:10085A0025210630FB001330FC00AD30FD00FD0BF6
:10086A00342CFC0B342CFB0B342C00000000013020
:10087A008312031798003720BF2B01308316EA0032
:10088A00FD207008F2007108F300F30CF20CF31368
:10089A007308003C031D532C72081E3C0318C52C18
:1008AA000130831203179800372001308316EA00BB
:1008BA000130EB006630EC0025218430831286007B
:1008CA0001308316EA00FD2070088312A000710827
:1008DA00A100A201A3012008F0002108F1002208CA
:1008EA00F2002308F300F30CF20CF10CF00CF313F2
:1008FA00731BF317F31F8A2C031C8A2CF00A0319A3
:10090A00F10A0319F20A0319F30A7008A000710820
:10091A00A1007208A2007308A30070088316EA00F7
:10092A007108EB00C930EC00682103308316031309
:10093A00EA000130EB00C930EC0025210230EA0060
:10094A000130EB00A030EC0025210330EA0007302B
:10095A00EB006030EC0025210630FB001330FC0070
:10096A00AD30FD00FD0BB72CFC0BB72CFB0BB72CE5
:10097A000000000001308312031798003720422C30
:10098A008312081CEF2C01308316EA000530EB00B5
:10099A006230EC0025210130EA000130EB006D30B5
:1009AA00EC0025210130EA000A30EB00A930EC0006
:1009BA0025218430831286000B30FB002630FC0090
:1009CA005D30FD00FD0BE72CFC0BE72CFB0BE72C45
:1009DA00000000000818052D0630FB001330FC004B
:1009EA00AD30FD00FD0BF72CFC0BF72CFB0BF72CA5
:1009FA0000000000013003179800372001308600FC
:040A0A008E2A062DFD
:100B0C00203084004C3083120313F0000C30831619
:100B1C00E8000530E9004122A0308400093083123E
:100B2C00F00078308316E8000530E90041226C3083
:100B3C00840004308312F00081308316E800053005
:100B4C00E9004122A930840020308312F000583093
:0C0B5C008316E8000530E9004122080083
:080A1800003400340034003406
:040A20004334003427
:080A24000034003400340034FA
:080A2C00253452344834003433
:080A34004E3445344D3400340A
:080A3C0043344F344B34003405
:080A440025345234483400341B
:080A4C004E3465346D340034B2
:080A540025345234483400340B
:060A5C0043344F34003466
:100A620053346934633461346B346C3469346B34B9
:020A720000344E
:100A740053346934633461346B346C3469346B34A7
:020A840000343C
:080A86004E3465346D34003478
:040A8E0043340034B9
:060A920043344F34003430
:040A980043340034AF
:080A9C00473441345A340034A0
:0C0AA40053344934433441344B340034A3
:080AB000563461347234003445
:100AB80053344934433441344B344C3449344B3443
:020AC8000034F8
:060ACA0041345A340034EF
:0C0AD00053344F34473455344B34003459
:040ADC00433400346B
:080AE00025345234483400347F
:080AE8004E3445344D34003456
:100AF00053344934433441344B344C3449344B340B
:020B00000034BF
:020B020030348D
:060B040043344F340034BD
:04400E00F22F000786
:00000001FF
